{"abi":[{"type":"constructor","inputs":[],"stateMutability":"nonpayable"},{"type":"function","name":"MAX_POINTS","inputs":[],"outputs":[{"name":"","type":"uint256","internalType":"uint256"}],"stateMutability":"view"},{"type":"function","name":"POINTS_UNIT","inputs":[],"outputs":[{"name":"","type":"uint256","internalType":"uint256"}],"stateMutability":"view"},{"type":"function","name":"battleTotals","inputs":[{"name":"","type":"uint256","internalType":"uint256"},{"name":"","type":"uint8","internalType":"uint8"}],"outputs":[{"name":"","type":"uint256","internalType":"uint256"}],"stateMutability":"view"},{"type":"function","name":"claimPoints","inputs":[{"name":"battleId","type":"uint256","internalType":"uint256"}],"outputs":[],"stateMutability":"nonpayable"},{"type":"function","name":"getBattle","inputs":[{"name":"battleId","type":"uint256","internalType":"uint256"}],"outputs":[{"name":"exists","type":"bool","internalType":"bool"},{"name":"resolved","type":"bool","internalType":"bool"},{"name":"winnerAgentId","type":"uint8","internalType":"uint8"}],"stateMutability":"view"},{"type":"function","name":"getBattleTotals","inputs":[{"name":"battleId","type":"uint256","internalType":"uint256"}],"outputs":[{"name":"total0","type":"uint256","internalType":"uint256"},{"name":"total1","type":"uint256","internalType":"uint256"},{"name":"total2","type":"uint256","internalType":"uint256"}],"stateMutability":"view"},{"type":"function","name":"getUserPrediction","inputs":[{"name":"battleId","type":"uint256","internalType":"uint256"},{"name":"user","type":"address","internalType":"address"}],"outputs":[{"name":"agentId","type":"uint8","internalType":"uint8"},{"name":"amount","type":"uint256","internalType":"uint256"},{"name":"withdrawn","type":"bool","internalType":"bool"}],"stateMutability":"view"},{"type":"function","name":"owner","inputs":[],"outputs":[{"name":"","type":"address","internalType":"address"}],"stateMutability":"view"},{"type":"function","name":"placePrediction","inputs":[{"name":"battleId","type":"uint256","internalType":"uint256"},{"name":"agentId","type":"uint8","internalType":"uint8"}],"outputs":[],"stateMutability":"payable"},{"type":"function","name":"points","inputs":[{"name":"","type":"address","internalType":"address"}],"outputs":[{"name":"","type":"uint256","internalType":"uint256"}],"stateMutability":"view"},{"type":"function","name":"resolveBattle","inputs":[{"name":"battleId","type":"uint256","internalType":"uint256"},{"name":"winnerAgentId","type":"uint8","internalType":"uint8"}],"outputs":[],"stateMutability":"nonpayable"},{"type":"function","name":"withdraw","inputs":[{"name":"battleId","type":"uint256","internalType":"uint256"}],"outputs":[],"stateMutability":"nonpayable"},{"type":"event","name":"BattleResolved","inputs":[{"name":"battleId","type":"uint256","indexed":true,"internalType":"uint256"},{"name":"winnerAgentId","type":"uint8","indexed":false,"internalType":"uint8"}],"anonymous":false},{"type":"event","name":"PointsClaimed","inputs":[{"name":"battleId","type":"uint256","indexed":true,"internalType":"uint256"},{"name":"bettor","type":"address","indexed":true,"internalType":"address"},{"name":"earned","type":"uint256","indexed":false,"internalType":"uint256"}],"anonymous":false},{"type":"event","name":"PredictionPlaced","inputs":[{"name":"battleId","type":"uint256","indexed":true,"internalType":"uint256"},{"name":"bettor","type":"address","indexed":true,"internalType":"address"},{"name":"agentId","type":"uint8","indexed":false,"internalType":"uint8"},{"name":"amount","type":"uint256","indexed":false,"internalType":"uint256"}],"anonymous":false},{"type":"event","name":"Withdrawn","inputs":[{"name":"battleId","type":"uint256","indexed":true,"internalType":"uint256"},{"name":"bettor","type":"address","indexed":true,"internalType":"address"},{"name":"amount","type":"uint256","indexed":false,"internalType":"uint256"}],"anonymous":false}],"bytecode":{"object":"0x60a060405260015f553480156012575f5ffd5b5033608052608051610d0b6100365f395f818161028c0152610a200152610d0b5ff3fe6080604052600436106100a5575f3560e01c80636ac28cb3116100625780636ac28cb3146101845780636dd0ce7a146101fa578063714c7b531461025c5780638da5cb5b1461027b578063d9fdc5be146102c6578063f85fb0ce146102e0575f5ffd5b806325f87d23146100a95780632e1a7d4d146100d05780632f64354c146100f157806332cd69fa14610127578063358b81661461013a5780633ac795de14610165575b5f5ffd5b3480156100b4575f5ffd5b506100bd600a81565b6040519081526020015b60405180910390f35b3480156100db575f5ffd5b506100ef6100ea366004610bc7565b610341565b005b3480156100fc575f5ffd5b506100bd61010b366004610bde565b600160209081525f928352604080842090915290825290205481565b6100ef610135366004610bde565b610574565b348015610145575f5ffd5b506100bd610154366004610c2c565b60026020525f908152604090205481565b348015610170575f5ffd5b506100ef61017f366004610bc7565b6107e8565b34801561018f575f5ffd5b506101d961019e366004610c4c565b5f9182526004602090815260408084206001600160a01b0393909316845291905290208054600182015460029092015460ff91821693911690565b6040805160ff909416845260208401929092521515908201526060016100c7565b348015610205575f5ffd5b5061023c610214366004610bc7565b5f9081526003602052604090205460ff80821692610100830482169262010000900490911690565b604080519315158452911515602084015260ff16908201526060016100c7565b348015610267575f5ffd5b506100ef610276366004610bde565b610a15565b348015610286575f5ffd5b506102ae7f000000000000000000000000000000000000000000000000000000000000000081565b6040516001600160a01b0390911681526020016100c7565b3480156102d1575f5ffd5b506100bd66038d7ea4c6800081565b3480156102eb575f5ffd5b506103266102fa366004610bc7565b5f9081526001602081815260408084208480529091528083205491835280832054600284529220549092565b604080519384526020840192909252908201526060016100c7565b5f546001146103885760405162461bcd60e51b815260206004820152600e60248201526d1499595b9d1c985b9d0818d85b1b60921b60448201526064015b60405180910390fd5b60025f9081558181526003602052604090208054610100900460ff166103ea5760405162461bcd60e51b815260206004820152601760248201527610985d1d1b19481b9bdd081c995cdbdb1d9959081e595d604a1b604482015260640161037f565b5f828152600460209081526040808320338452909152902060018101546104495760405162461bcd60e51b8152602060048201526013602482015272139bc81c1c99591a58dd1a5bdb88199bdd5b99606a1b604482015260640161037f565b600281015460ff16156104925760405162461bcd60e51b815260206004820152601160248201527020b63932b0b23c903bb4ba34323930bbb760791b604482015260640161037f565b60028101805460ff191660019081179091558101546040515f90339083908381818185875af1925050503d805f81146104e6576040519150601f19603f3d011682016040523d82523d5f602084013e6104eb565b606091505b50509050806105325760405162461bcd60e51b8152602060048201526013602482015272115512081d1c985b9cd9995c8819985a5b1959606a1b604482015260640161037f565b604051828152339086907fcf7d23a3cbe4e8b36ff82fd1b05b1b17373dc7804b4ebbd6e2356716ef2023729060200160405180910390a3505060015f55505050565b5f34116105b15760405162461bcd60e51b815260206004820152600b60248201526a139bc8115512081cd95b9d60aa1b604482015260640161037f565b60028160ff1611156106115760405162461bcd60e51b815260206004820152602360248201527f496e76616c6964206167656e7449643a206d75737420626520302c20312c206f60448201526239101960e91b606482015260840161037f565b5f8281526003602052604090208054610100900460ff16156106755760405162461bcd60e51b815260206004820152601760248201527f426174746c6520616c7265616479207265736f6c766564000000000000000000604482015260640161037f565b5f83815260046020908152604080832033845290915290206001810154156106df5760405162461bcd60e51b815260206004820181905260248201527f416c72656164792070726564696374656420696e207468697320626174746c65604482015260640161037f565b815460ff166106f457815460ff191660011782555b5f84815260016020908152604080832060ff871684529091528120805434929061071f908490610c8a565b90915550506040805160808101825260ff8581168083523460208085018281525f868801818152606088018281528d83526004855289832033808552908652928a90209851895460ff1916981697909717885591516001880155905160029096018054955161ffff1990961696151561ff0019169690961761010095151595909502949094179094558451918252928101929092529186917f07b75caee18334b4449f5d17757762cdceb0f9fd39ea0f000c175f359abbcc34910160405180910390a350505050565b5f8181526003602052604090208054610100900460ff166108455760405162461bcd60e51b815260206004820152601760248201527610985d1d1b19481b9bdd081c995cdbdb1d9959081e595d604a1b604482015260640161037f565b5f828152600460209081526040808320338452909152902060018101546108a45760405162461bcd60e51b8152602060048201526013602482015272139bc81c1c99591a58dd1a5bdb88199bdd5b99606a1b604482015260640161037f565b6002810154610100900460ff16156108f75760405162461bcd60e51b8152602060048201526016602482015275141bda5b9d1cc8185b1c9958591e4818db185a5b595960521b604482015260640161037f565b8154815460ff9081166201000090920416146109555760405162461bcd60e51b815260206004820152601860248201527f50726564696374696f6e2077617320696e636f72726563740000000000000000604482015260640161037f565b60028101805461ff00191661010017905560018101545f9061097f9066038d7ea4c6800090610ca3565b905061098d6001600a610cc2565b8111156109a3576109a06001600a610cc2565b90505b5f6109af826001610c8a565b335f908152600260205260408120805492935083929091906109d2908490610c8a565b9091555050604051818152339086907fc48dd27e34230e5b116d9b38a33e9549040ac9dd1f2fc743d3ccb35a27f282049060200160405180910390a35050505050565b336001600160a01b037f00000000000000000000000000000000000000000000000000000000000000001614610a795760405162461bcd60e51b81526020600482015260096024820152682737ba1037bbb732b960b91b604482015260640161037f565b5f828152600360205260409020805460ff16610acf5760405162461bcd60e51b815260206004820152601560248201527410985d1d1b1948191bd95cc81b9bdd08195e1a5cdd605a1b604482015260640161037f565b8054610100900460ff1615610b195760405162461bcd60e51b815260206004820152601060248201526f105b1c9958591e481c995cdbdb1d995960821b604482015260640161037f565b60028260ff161115610b655760405162461bcd60e51b8152602060048201526015602482015274125b9d985b1a59081dda5b9b995c9059d95b9d1259605a1b604482015260640161037f565b805460ff8316620100000262ffff00199091161761010017815560405183907ff8cd8b07dc320ec8ae70e587f02ac90ca7f4256e1c149f58abf9b60c7e4dad2990610bba90859060ff91909116815260200190565b60405180910390a2505050565b5f60208284031215610bd7575f5ffd5b5035919050565b5f5f60408385031215610bef575f5ffd5b82359150602083013560ff81168114610c06575f5ffd5b809150509250929050565b80356001600160a01b0381168114610c27575f5ffd5b919050565b5f60208284031215610c3c575f5ffd5b610c4582610c11565b9392505050565b5f5f60408385031215610c5d575f5ffd5b82359150610c6d60208401610c11565b90509250929050565b634e487b7160e01b5f52601160045260245ffd5b80820180821115610c9d57610c9d610c76565b92915050565b5f82610cbd57634e487b7160e01b5f52601260045260245ffd5b500490565b81810381811115610c9d57610c9d610c7656fea264697066735822122036ed8f9d0e27028d287a3dccb378ba64f83fea8a20770a93512983cb503e1cd264736f6c63430008210033","linkReferences":{}},"methodIdentifiers":{"MAX_POINTS()":"25f87d23","POINTS_UNIT()":"d9fdc5be","battleTotals(uint256,uint8)":"2f64354c","claimPoints(uint256)":"3ac795de","getBattle(uint256)":"6dd0ce7a","getBattleTotals(uint256)":"f85fb0ce","getUserPrediction(uint256,address)":"6ac28cb3","owner()":"8da5cb5b","placePrediction(uint256,uint8)":"32cd69fa","points(address)":"358b8166","resolveBattle(uint256,uint8)":"714c7b53","withdraw(uint256)":"2e1a7d4d"},"id":21}